{
  "contractName": "Journal",
  "abi": [
    {
      "anonymous": false,
      "inputs": [
        {
          "indexed": false,
          "internalType": "string",
          "name": "entry",
          "type": "string"
        }
      ],
      "name": "LogEntry",
      "type": "event"
    },
    {
      "payable": true,
      "stateMutability": "payable",
      "type": "fallback"
    },
    {
      "constant": false,
      "inputs": [
        {
          "internalType": "string",
          "name": "entry",
          "type": "string"
        }
      ],
      "name": "post",
      "outputs": [],
      "payable": false,
      "stateMutability": "nonpayable",
      "type": "function"
    }
  ],
  "bytecode": "0x608060405234801561001057600080fd5b506101bf806100206000396000f3fe60806040526004361061001e5760003560e01c80638ee93cf314610023575b600080fd5b34801561002f57600080fd5b506100e96004803603602081101561004657600080fd5b810190808035906020019064010000000081111561006357600080fd5b82018360208201111561007557600080fd5b8035906020019184600183028401116401000000008311171561009757600080fd5b91908080601f016020809104026020016040519081016040528093929190818152602001838380828437600081840152601f19601f8201169050808301925050505050505091929192905050506100eb565b005b7f5b8ba334da2fb4909dfe02cb1f0950cec158d8d12fd2c37b5eb28a52f00b61fb816040518080602001828103825283818151815260200191508051906020019080838360005b8381101561014d578082015181840152602081019050610132565b50505050905090810190601f16801561017a5780820380516001836020036101000a031916815260200191505b509250505060405180910390a15056fea265627a7a723158202d327f47c1572567c85855918b502537010425ffcd3b9edb36b92c4c7c721ace64736f6c63430005100032",
  "source": "pragma solidity >=0.5.1 <0.9.0;\r\n\r\ncontract Journal {\r\n    uint posts;\r\n    event LogEntry(string entry);\r\n\r\n    function post(string memory entry) public {\r\n        emit LogEntry(entry);\r\n    }\r\n\r\n    function () external payable  {\r\n        revert();\r\n    }\r\n}\r\n",
  "sourcePath": "C:\\Users\\Justin Cervantes\\Desktop\\ConSensys\\blockchain-developer-bootcamp-final-project\\contracts\\Journal.sol",
  "compiler": {
    "name": "solc",
    "version": "0.5.16+commit.9c3226ce.Emscripten.clang"
  },
  "schemaVersion": "3.4.3",
  "updatedAt": "2021-10-13T06:22:30.706Z",
  "devdoc": {
    "methods": {}
  },
  "userdoc": {
    "methods": {}
  }
}